{
  "_format": "hh-sol-artifact-1",
  "contractName": "Contract",
  "sourceName": "contracts/Contract.sol",
  "abi": [
    {
      "inputs": [],
      "stateMutability": "nonpayable",
      "type": "constructor"
    },
    {
      "anonymous": false,
      "inputs": [
        {
          "indexed": true,
          "internalType": "address",
          "name": "previousOwner",
          "type": "address"
        },
        {
          "indexed": true,
          "internalType": "address",
          "name": "newOwner",
          "type": "address"
        }
      ],
      "name": "OwnershipTransferred",
      "type": "event"
    },
    {
      "inputs": [],
      "name": "deposit",
      "outputs": [],
      "stateMutability": "payable",
      "type": "function"
    },
    {
      "inputs": [],
      "name": "get",
      "outputs": [
        {
          "internalType": "uint256",
          "name": "",
          "type": "uint256"
        }
      ],
      "stateMutability": "view",
      "type": "function"
    },
    {
      "inputs": [],
      "name": "owner",
      "outputs": [
        {
          "internalType": "address",
          "name": "",
          "type": "address"
        }
      ],
      "stateMutability": "view",
      "type": "function"
    },
    {
      "inputs": [],
      "name": "renounceOwnership",
      "outputs": [],
      "stateMutability": "nonpayable",
      "type": "function"
    },
    {
      "inputs": [
        {
          "internalType": "uint256",
          "name": "_number",
          "type": "uint256"
        }
      ],
      "name": "set",
      "outputs": [],
      "stateMutability": "nonpayable",
      "type": "function"
    },
    {
      "inputs": [
        {
          "internalType": "address",
          "name": "newOwner",
          "type": "address"
        }
      ],
      "name": "transferOwnership",
      "outputs": [],
      "stateMutability": "nonpayable",
      "type": "function"
    },
    {
      "inputs": [],
      "name": "withdraw",
      "outputs": [],
      "stateMutability": "nonpayable",
      "type": "function"
    }
  ],
  "bytecode": "0x608060405234801561001057600080fd5b5061002d61002261003a60201b60201c565b61004260201b60201c565b6000600181905550610106565b600033905090565b60008060009054906101000a900473ffffffffffffffffffffffffffffffffffffffff169050816000806101000a81548173ffffffffffffffffffffffffffffffffffffffff021916908373ffffffffffffffffffffffffffffffffffffffff1602179055508173ffffffffffffffffffffffffffffffffffffffff168173ffffffffffffffffffffffffffffffffffffffff167f8be0079c531659141344cd1fd0a4f28419497f9722a3daafe3b4186f6b6457e060405160405180910390a35050565b610856806101156000396000f3fe6080604052600436106100705760003560e01c8063715018a61161004e578063715018a6146100e05780638da5cb5b146100f7578063d0e30db014610122578063f2fde38b1461012c57610070565b80633ccfd60b1461007557806360fe47b11461008c5780636d4ce63c146100b5575b600080fd5b34801561008157600080fd5b5061008a610155565b005b34801561009857600080fd5b506100b360048036038101906100ae919061056f565b61028d565b005b3480156100c157600080fd5b506100ca610297565b6040516100d791906106d6565b60405180910390f35b3480156100ec57600080fd5b506100f56102a1565b005b34801561010357600080fd5b5061010c610329565b604051610119919061065b565b60405180910390f35b61012a610352565b005b34801561013857600080fd5b50610153600480360381019061014e9190610542565b610354565b005b61015d61044c565b73ffffffffffffffffffffffffffffffffffffffff1661017b610329565b73ffffffffffffffffffffffffffffffffffffffff16146101d1576040517f08c379a00000000000000000000000000000000000000000000000000000000081526004016101c890610696565b60405180910390fd5b600047905060006101e0610329565b73ffffffffffffffffffffffffffffffffffffffff168260405161020390610646565b60006040518083038185875af1925050503d8060008114610240576040519150601f19603f3d011682016040523d82523d6000602084013e610245565b606091505b5050905080610289576040517f08c379a0000000000000000000000000000000000000000000000000000000008152600401610280906106b6565b60405180910390fd5b5050565b8060018190555050565b6000600154905090565b6102a961044c565b73ffffffffffffffffffffffffffffffffffffffff166102c7610329565b73ffffffffffffffffffffffffffffffffffffffff161461031d576040517f08c379a000000000000000000000000000000000000000000000000000000000815260040161031490610696565b60405180910390fd5b6103276000610454565b565b60008060009054906101000a900473ffffffffffffffffffffffffffffffffffffffff16905090565b565b61035c61044c565b73ffffffffffffffffffffffffffffffffffffffff1661037a610329565b73ffffffffffffffffffffffffffffffffffffffff16146103d0576040517f08c379a00000000000000000000000000000000000000000000000000000000081526004016103c790610696565b60405180910390fd5b600073ffffffffffffffffffffffffffffffffffffffff168173ffffffffffffffffffffffffffffffffffffffff161415610440576040517f08c379a000000000000000000000000000000000000000000000000000000000815260040161043790610676565b60405180910390fd5b61044981610454565b50565b600033905090565b60008060009054906101000a900473ffffffffffffffffffffffffffffffffffffffff169050816000806101000a81548173ffffffffffffffffffffffffffffffffffffffff021916908373ffffffffffffffffffffffffffffffffffffffff1602179055508173ffffffffffffffffffffffffffffffffffffffff168173ffffffffffffffffffffffffffffffffffffffff167f8be0079c531659141344cd1fd0a4f28419497f9722a3daafe3b4186f6b6457e060405160405180910390a35050565b600081359050610527816107f2565b92915050565b60008135905061053c81610809565b92915050565b60006020828403121561055857610557610749565b5b600061056684828501610518565b91505092915050565b60006020828403121561058557610584610749565b5b60006105938482850161052d565b91505092915050565b6105a58161070d565b82525050565b60006105b86026836106fc565b91506105c38261074e565b604082019050919050565b60006105db6020836106fc565b91506105e68261079d565b602082019050919050565b60006105fe6000836106f1565b9150610609826107c6565b600082019050919050565b60006106216019836106fc565b915061062c826107c9565b602082019050919050565b6106408161073f565b82525050565b6000610651826105f1565b9150819050919050565b6000602082019050610670600083018461059c565b92915050565b6000602082019050818103600083015261068f816105ab565b9050919050565b600060208201905081810360008301526106af816105ce565b9050919050565b600060208201905081810360008301526106cf81610614565b9050919050565b60006020820190506106eb6000830184610637565b92915050565b600081905092915050565b600082825260208201905092915050565b60006107188261071f565b9050919050565b600073ffffffffffffffffffffffffffffffffffffffff82169050919050565b6000819050919050565b600080fd5b7f4f776e61626c653a206e6577206f776e657220697320746865207a65726f206160008201527f6464726573730000000000000000000000000000000000000000000000000000602082015250565b7f4f776e61626c653a2063616c6c6572206973206e6f7420746865206f776e6572600082015250565b50565b7f4661696c656420746f2077697468647261772066756e64732e00000000000000600082015250565b6107fb8161070d565b811461080657600080fd5b50565b6108128161073f565b811461081d57600080fd5b5056fea2646970667358221220b0903e151b1402112486165d641871db2c0a72d0ccbdb1d40ac4b4e46e4ece8c64736f6c63430008070033",
  "linkReferences": {},
  "deployedLinkReferences": {}
}